{
  "transactions": [
    {
      "hash": "0x2d417300de24d36cce592004dbd5eefed93d70d21ecce7b3b5622c6c765ca4a8",
      "transactionType": "CALL",
      "contractName": null,
      "contractAddress": "0x498581ff718922c3f8e6a244956af099b2652b2b",
      "function": "initialize((address,address,uint24,int24,address),uint160)",
      "arguments": [
        "(0x4aA1dF02688241e4c665D4837a7c201CddF9F3CD, 0xbB9d7298273dFEbe2706aafb06d7f1c10E8B356a, 3000, 60, 0xC3CEe78d0825b24C684355de4e6FbD51F0b940c0)",
        "152604218284700732489728"
      ],
      "transaction": {
        "from": "0x9c760302031d1122b214c5869e526bfd57f04cf1",
        "to": "0x498581ff718922c3f8e6a244956af099b2652b2b",
        "gas": "0x11880",
        "value": "0x0",
        "input": "0x6276cbbe0000000000000000000000004aa1df02688241e4c665d4837a7c201cddf9f3cd000000000000000000000000bb9d7298273dfebe2706aafb06d7f1c10e8b356a0000000000000000000000000000000000000000000000000000000000000bb8000000000000000000000000000000000000000000000000000000000000003c000000000000000000000000c3cee78d0825b24c684355de4e6fbd51f0b940c0000000000000000000000000000000000000000000002050b0f5be227e000000",
        "nonce": "0x57",
        "chainId": "0x2105"
      },
      "additionalContracts": [],
      "isFixedGasLimit": false
    }
  ],
  "receipts": [
    {
      "status": "0x1",
      "cumulativeGasUsed": "0x20297a6",
      "logs": [
        {
          "address": "0x498581ff718922c3f8e6a244956af099b2652b2b",
          "topics": [
            "0xdd466e674ea557f56295e2d0218a125ea4b4f0f6f3307b95f85e6110838d6438",
            "0xee3563ab546dddd4c9b8c4db4721077d62d363bfeabf0a98b5ed786e0ff2a7be",
            "0x0000000000000000000000004aa1df02688241e4c665d4837a7c201cddf9f3cd",
            "0x000000000000000000000000bb9d7298273dfebe2706aafb06d7f1c10e8b356a"
          ],
          "data": "0x0000000000000000000000000000000000000000000000000000000000000bb8000000000000000000000000000000000000000000000000000000000000003c000000000000000000000000c3cee78d0825b24c684355de4e6fbd51f0b940c0000000000000000000000000000000000000000000002050b0f5be227e000000fffffffffffffffffffffffffffffffffffffffffffffffffffffffffffbfbd2",
          "blockHash": "0x448159db9658aab64f2aa25d889bd8d448dc242a59461f06211e927d400d5cf6",
          "blockNumber": "0x24c54c5",
          "blockTimestamp": "0x6923066d",
          "transactionHash": "0x2d417300de24d36cce592004dbd5eefed93d70d21ecce7b3b5622c6c765ca4a8",
          "transactionIndex": "0xf2",
          "logIndex": "0x189",
          "removed": false
        }
      ],
      "logsBloom": "0x00000000000000000000000000000000000000000000000000000000000000000002000000000000000000000000000000000000000000000000000000000000000000000000000000000000000000004000000000004000000000000000000000000000000000000000000000000000000000000000000000000000000020000000000000004018000000000000001000000001000000000000000000200000000000000000000000000000000000000000000000400000000000000000000000000000000000000000000000000000000800000000000000000000000000000000000000000000000020000000000000200400000000000000000000000000",
      "type": "0x2",
      "transactionHash": "0x2d417300de24d36cce592004dbd5eefed93d70d21ecce7b3b5622c6c765ca4a8",
      "transactionIndex": "0xf2",
      "blockHash": "0x448159db9658aab64f2aa25d889bd8d448dc242a59461f06211e927d400d5cf6",
      "blockNumber": "0x24c54c5",
      "gasUsed": "0xcb14",
      "effectiveGasPrice": "0x15715f",
      "from": "0x9c760302031d1122b214c5869e526bfd57f04cf1",
      "to": "0x498581ff718922c3f8e6a244956af099b2652b2b",
      "contractAddress": null,
      "l1BaseFeeScalar": "0x8dd",
      "l1BlobBaseFee": "0x1",
      "l1BlobBaseFeeScalar": "0x101c12",
      "l1Fee": "0x17cf739a",
      "l1GasPrice": "0x53074fa",
      "l1GasUsed": "0x927"
    }
  ],
  "libraries": [],
  "pending": [],
  "returns": {},
  "timestamp": 1763903084450,
  "chain": 8453,
  "commit": "e3174dc"
}