{
  "transactions": [
    {
      "hash": "0x6fef3e755607b98fa25df4a9d3934ef7f26cb486fef376976e2f10f92c120295",
      "transactionType": "CALL",
      "contractName": null,
      "contractAddress": "0x4aa1df02688241e4c665d4837a7c201cddf9f3cd",
      "function": "approve(address,uint256)",
      "arguments": [
        "0x000000000022D473030F116dDEE9F6B43aC78BA3",
        "115792089237316195423570985008687907853269984665640564039457584007913129639935"
      ],
      "transaction": {
        "from": "0x9c760302031d1122b214c5869e526bfd57f04cf1",
        "to": "0x4aa1df02688241e4c665d4837a7c201cddf9f3cd",
        "gas": "0x9660",
        "value": "0x0",
        "input": "0x095ea7b3000000000000000000000000000000000022d473030f116ddee9f6b43ac78ba3ffffffffffffffffffffffffffffffffffffffffffffffffffffffffffffffff",
        "nonce": "0x4d",
        "chainId": "0x2105"
      },
      "additionalContracts": [],
      "isFixedGasLimit": false
    },
    {
      "hash": "0xb09785ba476d91733c330f233d79fa45d3071e26c9f44e66800c10e3e6d7b57d",
      "transactionType": "CALL",
      "contractName": null,
      "contractAddress": "0xbb9d7298273dfebe2706aafb06d7f1c10e8b356a",
      "function": "approve(address,uint256)",
      "arguments": [
        "0x000000000022D473030F116dDEE9F6B43aC78BA3",
        "115792089237316195423570985008687907853269984665640564039457584007913129639935"
      ],
      "transaction": {
        "from": "0x9c760302031d1122b214c5869e526bfd57f04cf1",
        "to": "0xbb9d7298273dfebe2706aafb06d7f1c10e8b356a",
        "gas": "0x965f",
        "value": "0x0",
        "input": "0x095ea7b3000000000000000000000000000000000022d473030f116ddee9f6b43ac78ba3ffffffffffffffffffffffffffffffffffffffffffffffffffffffffffffffff",
        "nonce": "0x4e",
        "chainId": "0x2105"
      },
      "additionalContracts": [],
      "isFixedGasLimit": false
    },
    {
      "hash": "0x7ce00cff61bbad31fea6dc193047ce56f7c15a3daf0f8de53319604a973f1007",
      "transactionType": "CALL",
      "contractName": null,
      "contractAddress": "0x000000000022d473030f116ddee9f6b43ac78ba3",
      "function": "approve(address,address,uint160,uint48)",
      "arguments": [
        "0x4aA1dF02688241e4c665D4837a7c201CddF9F3CD",
        "0x7C5f5A4bBd8fD63184577525326123B519429bDc",
        "1461501637330902918203684832716283019655932542975",
        "281474976710655"
      ],
      "transaction": {
        "from": "0x9c760302031d1122b214c5869e526bfd57f04cf1",
        "to": "0x000000000022d473030f116ddee9f6b43ac78ba3",
        "gas": "0x96a0",
        "value": "0x0",
        "input": "0x87517c450000000000000000000000004aa1df02688241e4c665d4837a7c201cddf9f3cd0000000000000000000000007c5f5a4bbd8fd63184577525326123b519429bdc000000000000000000000000ffffffffffffffffffffffffffffffffffffffff0000000000000000000000000000000000000000000000000000ffffffffffff",
        "nonce": "0x4f",
        "chainId": "0x2105"
      },
      "additionalContracts": [],
      "isFixedGasLimit": false
    },
    {
      "hash": "0x6a23063f565e2bb06eb1d2eb4bb090fae23d4abccf607f0511a40c0efb9b86bb",
      "transactionType": "CALL",
      "contractName": null,
      "contractAddress": "0x000000000022d473030f116ddee9f6b43ac78ba3",
      "function": "approve(address,address,uint160,uint48)",
      "arguments": [
        "0xbB9d7298273dFEbe2706aafb06d7f1c10E8B356a",
        "0x7C5f5A4bBd8fD63184577525326123B519429bDc",
        "1461501637330902918203684832716283019655932542975",
        "281474976710655"
      ],
      "transaction": {
        "from": "0x9c760302031d1122b214c5869e526bfd57f04cf1",
        "to": "0x000000000022d473030f116ddee9f6b43ac78ba3",
        "gas": "0x96a0",
        "value": "0x0",
        "input": "0x87517c45000000000000000000000000bb9d7298273dfebe2706aafb06d7f1c10e8b356a0000000000000000000000007c5f5a4bbd8fd63184577525326123b519429bdc000000000000000000000000ffffffffffffffffffffffffffffffffffffffff0000000000000000000000000000000000000000000000000000ffffffffffff",
        "nonce": "0x50",
        "chainId": "0x2105"
      },
      "additionalContracts": [],
      "isFixedGasLimit": false
    },
    {
      "hash": "0x9cf01db5dd88c9f4084a42cedb01662c6e6189f68f7f580e667f37b6911f09cc",
      "transactionType": "CALL",
      "contractName": null,
      "contractAddress": "0x7c5f5a4bbd8fd63184577525326123b519429bdc",
      "function": "modifyLiquidities(bytes,uint256)",
      "arguments": [
        "0x0000000000000000000000000000000000000000000000000000000000000040000000000000000000000000000000000000000000000000000000000000008000000000000000000000000000000000000000000000000000000000000000030212120000000000000000000000000000000000000000000000000000000000000000000000000000000000000000000000000000000000000000000000000300000000000000000000000000000000000000000000000000000000000000600000000000000000000000000000000000000000000000000000000000000220000000000000000000000000000000000000000000000000000000000000026000000000000000000000000000000000000000000000000000000000000001a00000000000000000000000004aa1df02688241e4c665d4837a7c201cddf9f3cd000000000000000000000000bb9d7298273dfebe2706aafb06d7f1c10e8b356a0000000000000000000000000000000000000000000000000000000000000000000000000000000000000000000000000000000000000000000000000000003c000000000000000000000000c3cee78d0825b24c684355de4e6fbd51f0b940c0ffffffffffffffffffffffffffffffffffffffffffffffffffffffffffffff880000000000000000000000000000000000000000000000000000000000000078000000000000000000000000000000000000000000000000002386f26fc100000000000000000000000000000000000000000000000000000de0b6b3a764000000000000000000000000000000000000000000000000000000000002540be4000000000000000000000000009c760302031d1122b214c5869e526bfd57f04cf10000000000000000000000000000000000000000000000000000000000000180000000000000000000000000000000000000000000000000000000000000000000000000000000000000000000000000000000000000000000000000000000200000000000000000000000004aa1df02688241e4c665d4837a7c201cddf9f3cd0000000000000000000000000000000000000000000000000000000000000020000000000000000000000000bb9d7298273dfebe2706aafb06d7f1c10e8b356a",
        "1763906215"
      ],
      "transaction": {
        "from": "0x9c760302031d1122b214c5869e526bfd57f04cf1",
        "to": "0x7c5f5a4bbd8fd63184577525326123b519429bdc",
        "gas": "0x43dbb",
        "value": "0x0",
        "input": "0xdd46508f000000000000000000000000000000000000000000000000000000000000004000000000000000000000000000000000000000000000000000000000692312a700000000000000000000000000000000000000000000000000000000000003400000000000000000000000000000000000000000000000000000000000000040000000000000000000000000000000000000000000000000000000000000008000000000000000000000000000000000000000000000000000000000000000030212120000000000000000000000000000000000000000000000000000000000000000000000000000000000000000000000000000000000000000000000000300000000000000000000000000000000000000000000000000000000000000600000000000000000000000000000000000000000000000000000000000000220000000000000000000000000000000000000000000000000000000000000026000000000000000000000000000000000000000000000000000000000000001a00000000000000000000000004aa1df02688241e4c665d4837a7c201cddf9f3cd000000000000000000000000bb9d7298273dfebe2706aafb06d7f1c10e8b356a0000000000000000000000000000000000000000000000000000000000000000000000000000000000000000000000000000000000000000000000000000003c000000000000000000000000c3cee78d0825b24c684355de4e6fbd51f0b940c0ffffffffffffffffffffffffffffffffffffffffffffffffffffffffffffff880000000000000000000000000000000000000000000000000000000000000078000000000000000000000000000000000000000000000000002386f26fc100000000000000000000000000000000000000000000000000000de0b6b3a764000000000000000000000000000000000000000000000000000000000002540be4000000000000000000000000009c760302031d1122b214c5869e526bfd57f04cf10000000000000000000000000000000000000000000000000000000000000180000000000000000000000000000000000000000000000000000000000000000000000000000000000000000000000000000000000000000000000000000000200000000000000000000000004aa1df02688241e4c665d4837a7c201cddf9f3cd0000000000000000000000000000000000000000000000000000000000000020000000000000000000000000bb9d7298273dfebe2706aafb06d7f1c10e8b356a",
        "nonce": "0x51",
        "chainId": "0x2105"
      },
      "additionalContracts": [],
      "isFixedGasLimit": false
    }
  ],
  "receipts": [
    {
      "status": "0x1",
      "cumulativeGasUsed": "0x1e8af9b",
      "logs": [
        {
          "address": "0x4aa1df02688241e4c665d4837a7c201cddf9f3cd",
          "topics": [
            "0x8c5be1e5ebec7d5bd14f71427d1e84f3dd0314c0f7b2291e5b200ac8c7c3b925",
            "0x0000000000000000000000009c760302031d1122b214c5869e526bfd57f04cf1",
            "0x000000000000000000000000000000000022d473030f116ddee9f6b43ac78ba3"
          ],
          "data": "0xffffffffffffffffffffffffffffffffffffffffffffffffffffffffffffffff",
          "blockHash": "0x694919ad9d23b915f0193c229971035a2180edb84d3717f77d37fc5ac705a2e6",
          "blockNumber": "0x24c53e5",
          "blockTimestamp": "0x692304ad",
          "transactionHash": "0x6fef3e755607b98fa25df4a9d3934ef7f26cb486fef376976e2f10f92c120295",
          "transactionIndex": "0xad",
          "logIndex": "0x1bc",
          "removed": false
        }
      ],
      "logsBloom": "0x00000000000000000000000000000000000000000000000000000000000000000000000000000000000000000000000000000000800000000000000000200000000000000000000000004000000000000001000000000800000000000000000000000000000000000000000000000000000000000000000200000000000000000000000000000000000000000000010000000000000000000000000000000000020000000000011000000000000000000000000000000000000000000000000000000000000000000000000000000010000000000000000000000000000000000010000000000000000000000000000000000000000000000000000000000000",
      "type": "0x2",
      "transactionHash": "0x6fef3e755607b98fa25df4a9d3934ef7f26cb486fef376976e2f10f92c120295",
      "transactionIndex": "0xad",
      "blockHash": "0x694919ad9d23b915f0193c229971035a2180edb84d3717f77d37fc5ac705a2e6",
      "blockNumber": "0x24c53e5",
      "gasUsed": "0x66d3",
      "effectiveGasPrice": "0x98eb8",
      "from": "0x9c760302031d1122b214c5869e526bfd57f04cf1",
      "to": "0x4aa1df02688241e4c665d4837a7c201cddf9f3cd",
      "contractAddress": null,
      "l1BaseFeeScalar": "0x8dd",
      "l1BlobBaseFee": "0x1",
      "l1BlobBaseFeeScalar": "0x101c12",
      "l1Fee": "0x19ebda5e",
      "l1GasPrice": "0x50c477d",
      "l1GasUsed": "0x640"
    },
    {
      "status": "0x1",
      "cumulativeGasUsed": "0x1e9166d",
      "logs": [
        {
          "address": "0xbb9d7298273dfebe2706aafb06d7f1c10e8b356a",
          "topics": [
            "0x8c5be1e5ebec7d5bd14f71427d1e84f3dd0314c0f7b2291e5b200ac8c7c3b925",
            "0x0000000000000000000000009c760302031d1122b214c5869e526bfd57f04cf1",
            "0x000000000000000000000000000000000022d473030f116ddee9f6b43ac78ba3"
          ],
          "data": "0xffffffffffffffffffffffffffffffffffffffffffffffffffffffffffffffff",
          "blockHash": "0x694919ad9d23b915f0193c229971035a2180edb84d3717f77d37fc5ac705a2e6",
          "blockNumber": "0x24c53e5",
          "blockTimestamp": "0x692304ad",
          "transactionHash": "0xb09785ba476d91733c330f233d79fa45d3071e26c9f44e66800c10e3e6d7b57d",
          "transactionIndex": "0xae",
          "logIndex": "0x1bd",
          "removed": false
        }
      ],
      "logsBloom": "0x00000000000000000000000000000000000000000000000000000000000000000000000000000000000000000000000000000000800000000000000000200000000000000000000000004000000000000000000000000800000000000000000000000000000000000000000000000000000000000000000000000000000000000000000000000000000000000000010000800000000000000000000000000000020000020000010000000000000000000000000000000000000000000000000000000000000000000000000000000010800000000000000000000000000000000010000000000000000000000000000000000000000000000000000000000000",
      "type": "0x2",
      "transactionHash": "0xb09785ba476d91733c330f233d79fa45d3071e26c9f44e66800c10e3e6d7b57d",
      "transactionIndex": "0xae",
      "blockHash": "0x694919ad9d23b915f0193c229971035a2180edb84d3717f77d37fc5ac705a2e6",
      "blockNumber": "0x24c53e5",
      "gasUsed": "0x66d2",
      "effectiveGasPrice": "0x98eb8",
      "from": "0x9c760302031d1122b214c5869e526bfd57f04cf1",
      "to": "0xbb9d7298273dfebe2706aafb06d7f1c10e8b356a",
      "contractAddress": null,
      "l1BaseFeeScalar": "0x8dd",
      "l1BlobBaseFee": "0x1",
      "l1BlobBaseFeeScalar": "0x101c12",
      "l1Fee": "0x19ebda5e",
      "l1GasPrice": "0x50c477d",
      "l1GasUsed": "0x640"
    },
    {
      "status": "0x1",
      "cumulativeGasUsed": "0x1e9837b",
      "logs": [
        {
          "address": "0x000000000022d473030f116ddee9f6b43ac78ba3",
          "topics": [
            "0xda9fa7c1b00402c17d0161b249b1ab8bbec047c5a52207b9c112deffd817036b",
            "0x0000000000000000000000009c760302031d1122b214c5869e526bfd57f04cf1",
            "0x0000000000000000000000004aa1df02688241e4c665d4837a7c201cddf9f3cd",
            "0x0000000000000000000000007c5f5a4bbd8fd63184577525326123b519429bdc"
          ],
          "data": "0x000000000000000000000000ffffffffffffffffffffffffffffffffffffffff0000000000000000000000000000000000000000000000000000ffffffffffff",
          "blockHash": "0x694919ad9d23b915f0193c229971035a2180edb84d3717f77d37fc5ac705a2e6",
          "blockNumber": "0x24c53e5",
          "blockTimestamp": "0x692304ad",
          "transactionHash": "0x7ce00cff61bbad31fea6dc193047ce56f7c15a3daf0f8de53319604a973f1007",
          "transactionIndex": "0xaf",
          "logIndex": "0x1be",
          "removed": false
        }
      ],
      "logsBloom": "0x00010000000000000000000000000000000000000000000000000000000000000000000000000000000000000000000000000000000000000000000000082000000000000000000000000000000000000000000000000000000000000000000000000000000000000000000000000000000000000000000000000000000000000020000000000010000000000000011000000000000000000000000000000000000000000000010000000000000000000000000000400000000000080000000200000000000000000000000000000010000000000000000040000000000000000000000000000000000000000000000000000000002000000000000000000400",
      "type": "0x2",
      "transactionHash": "0x7ce00cff61bbad31fea6dc193047ce56f7c15a3daf0f8de53319604a973f1007",
      "transactionIndex": "0xaf",
      "blockHash": "0x694919ad9d23b915f0193c229971035a2180edb84d3717f77d37fc5ac705a2e6",
      "blockNumber": "0x24c53e5",
      "gasUsed": "0x6d0e",
      "effectiveGasPrice": "0x98eb8",
      "from": "0x9c760302031d1122b214c5869e526bfd57f04cf1",
      "to": "0x000000000022d473030f116ddee9f6b43ac78ba3",
      "contractAddress": null,
      "l1BaseFeeScalar": "0x8dd",
      "l1BlobBaseFee": "0x1",
      "l1BlobBaseFeeScalar": "0x101c12",
      "l1Fee": "0x19ebda5e",
      "l1GasPrice": "0x50c477d",
      "l1GasUsed": "0x6e7"
    },
    {
      "status": "0x1",
      "cumulativeGasUsed": "0x1e9f089",
      "logs": [
        {
          "address": "0x000000000022d473030f116ddee9f6b43ac78ba3",
          "topics": [
            "0xda9fa7c1b00402c17d0161b249b1ab8bbec047c5a52207b9c112deffd817036b",
            "0x0000000000000000000000009c760302031d1122b214c5869e526bfd57f04cf1",
            "0x000000000000000000000000bb9d7298273dfebe2706aafb06d7f1c10e8b356a",
            "0x0000000000000000000000007c5f5a4bbd8fd63184577525326123b519429bdc"
          ],
          "data": "0x000000000000000000000000ffffffffffffffffffffffffffffffffffffffff0000000000000000000000000000000000000000000000000000ffffffffffff",
          "blockHash": "0x694919ad9d23b915f0193c229971035a2180edb84d3717f77d37fc5ac705a2e6",
          "blockNumber": "0x24c53e5",
          "blockTimestamp": "0x692304ad",
          "transactionHash": "0x6a23063f565e2bb06eb1d2eb4bb090fae23d4abccf607f0511a40c0efb9b86bb",
          "transactionIndex": "0xb0",
          "logIndex": "0x1bf",
          "removed": false
        }
      ],
      "logsBloom": "0x00010000000000000000000000000000000000000000000000000000000000000002000000000000000000000000000000000000000000000000000000082000000000000000000000000000000000004000000000000000000000000000000000000000000000000000000000000000000000000000000000000000000000000020000000000000000000000000010000000000000000000000000000000000000000000000010000000000000000000000000000000000000000080000000200000000000000000000000000000010000000000000000040000000000000000000000000000000000020000000000000000000002000000000000000000400",
      "type": "0x2",
      "transactionHash": "0x6a23063f565e2bb06eb1d2eb4bb090fae23d4abccf607f0511a40c0efb9b86bb",
      "transactionIndex": "0xb0",
      "blockHash": "0x694919ad9d23b915f0193c229971035a2180edb84d3717f77d37fc5ac705a2e6",
      "blockNumber": "0x24c53e5",
      "gasUsed": "0x6d0e",
      "effectiveGasPrice": "0x98eb8",
      "from": "0x9c760302031d1122b214c5869e526bfd57f04cf1",
      "to": "0x000000000022d473030f116ddee9f6b43ac78ba3",
      "contractAddress": null,
      "l1BaseFeeScalar": "0x8dd",
      "l1BlobBaseFee": "0x1",
      "l1BlobBaseFeeScalar": "0x101c12",
      "l1Fee": "0x19ebda5e",
      "l1GasPrice": "0x50c477d",
      "l1GasUsed": "0x6e7"
    },
    {
      "status": "0x1",
      "cumulativeGasUsed": "0x1ecd6eb",
      "logs": [
        {
          "address": "0x7c5f5a4bbd8fd63184577525326123b519429bdc",
          "topics": [
            "0xddf252ad1be2c89b69c2b068fc378daa952ba7f163c4a11628f55a4df523b3ef",
            "0x0000000000000000000000000000000000000000000000000000000000000000",
            "0x0000000000000000000000009c760302031d1122b214c5869e526bfd57f04cf1",
            "0x00000000000000000000000000000000000000000000000000000000000b391d"
          ],
          "data": "0x",
          "blockHash": "0x694919ad9d23b915f0193c229971035a2180edb84d3717f77d37fc5ac705a2e6",
          "blockNumber": "0x24c53e5",
          "blockTimestamp": "0x692304ad",
          "transactionHash": "0x9cf01db5dd88c9f4084a42cedb01662c6e6189f68f7f580e667f37b6911f09cc",
          "transactionIndex": "0xb1",
          "logIndex": "0x1c0",
          "removed": false
        },
        {
          "address": "0x498581ff718922c3f8e6a244956af099b2652b2b",
          "topics": [
            "0xf208f4912782fd25c7f114ca3723a2d5dd6f3bcc3ac8db5af63baa85f711d5ec",
            "0x4e5e918bd31b3ab25ac6b401452b635771c15f30fa6e4cdbb4838cc61ee06805",
            "0x0000000000000000000000007c5f5a4bbd8fd63184577525326123b519429bdc"
          ],
          "data": "0xffffffffffffffffffffffffffffffffffffffffffffffffffffffffffffff880000000000000000000000000000000000000000000000000000000000000078000000000000000000000000000000000000000000000000002386f26fc1000000000000000000000000000000000000000000000000000000000000000b391d",
          "blockHash": "0x694919ad9d23b915f0193c229971035a2180edb84d3717f77d37fc5ac705a2e6",
          "blockNumber": "0x24c53e5",
          "blockTimestamp": "0x692304ad",
          "transactionHash": "0x9cf01db5dd88c9f4084a42cedb01662c6e6189f68f7f580e667f37b6911f09cc",
          "transactionIndex": "0xb1",
          "logIndex": "0x1c1",
          "removed": false
        },
        {
          "address": "0x4aa1df02688241e4c665d4837a7c201cddf9f3cd",
          "topics": [
            "0xddf252ad1be2c89b69c2b068fc378daa952ba7f163c4a11628f55a4df523b3ef",
            "0x0000000000000000000000009c760302031d1122b214c5869e526bfd57f04cf1",
            "0x000000000000000000000000498581ff718922c3f8e6a244956af099b2652b2b"
          ],
          "data": "0x00000000000000000000000000000000000000000000000000006d2272ad919f",
          "blockHash": "0x694919ad9d23b915f0193c229971035a2180edb84d3717f77d37fc5ac705a2e6",
          "blockNumber": "0x24c53e5",
          "blockTimestamp": "0x692304ad",
          "transactionHash": "0x9cf01db5dd88c9f4084a42cedb01662c6e6189f68f7f580e667f37b6911f09cc",
          "transactionIndex": "0xb1",
          "logIndex": "0x1c2",
          "removed": false
        }
      ],
      "logsBloom": "0x00000000000010000000000080000000000000000000000000000000000000000020000000000000000000000000000000000000000020000000000000002000000000000000000000000008000000000001000000000000000000000000000000000000020000000000000000000800040000000000000200000010000000000000000001004000000000000000010000000000000000000000000400000000004004000000011008000000000000000000000000000000000000000000000200000002000001000200000000000010000800080000000000000000000020000000000000000000008000000000000004000400002000000000000000000000",
      "type": "0x2",
      "transactionHash": "0x9cf01db5dd88c9f4084a42cedb01662c6e6189f68f7f580e667f37b6911f09cc",
      "transactionIndex": "0xb1",
      "blockHash": "0x694919ad9d23b915f0193c229971035a2180edb84d3717f77d37fc5ac705a2e6",
      "blockNumber": "0x24c53e5",
      "gasUsed": "0x2e662",
      "effectiveGasPrice": "0x98eb8",
      "from": "0x9c760302031d1122b214c5869e526bfd57f04cf1",
      "to": "0x7c5f5a4bbd8fd63184577525326123b519429bdc",
      "contractAddress": null,
      "l1BaseFeeScalar": "0x8dd",
      "l1BlobBaseFee": "0x1",
      "l1BlobBaseFeeScalar": "0x101c12",
      "l1Fee": "0x19ebda5e",
      "l1GasPrice": "0x50c477d",
      "l1GasUsed": "0x10d6"
    }
  ],
  "libraries": [],
  "pending": [],
  "returns": {},
  "timestamp": 1763902636382,
  "chain": 8453,
  "commit": "e3174dc"
}