{
  "transactions": [
    {
      "hash": "0x2c68e5a4644a5cb2ff09e7c9d5b620441288c3138825abe02eb8ad2c70d2055b",
      "transactionType": "CALL",
      "contractName": null,
      "contractAddress": "0x4aa1df02688241e4c665d4837a7c201cddf9f3cd",
      "function": "approve(address,uint256)",
      "arguments": [
        "0x000000000022D473030F116dDEE9F6B43aC78BA3",
        "115792089237316195423570985008687907853269984665640564039457584007913129639935"
      ],
      "transaction": {
        "from": "0x9c760302031d1122b214c5869e526bfd57f04cf1",
        "to": "0x4aa1df02688241e4c665d4837a7c201cddf9f3cd",
        "gas": "0x9660",
        "value": "0x0",
        "input": "0x095ea7b3000000000000000000000000000000000022d473030f116ddee9f6b43ac78ba3ffffffffffffffffffffffffffffffffffffffffffffffffffffffffffffffff",
        "nonce": "0x52",
        "chainId": "0x2105"
      },
      "additionalContracts": [],
      "isFixedGasLimit": false
    },
    {
      "hash": "0x50e949e0d0f9f643d9d30b84238d0960992dce3c37ebc7a9ec4844ae9b288ed3",
      "transactionType": "CALL",
      "contractName": null,
      "contractAddress": "0xbb9d7298273dfebe2706aafb06d7f1c10e8b356a",
      "function": "approve(address,uint256)",
      "arguments": [
        "0x000000000022D473030F116dDEE9F6B43aC78BA3",
        "115792089237316195423570985008687907853269984665640564039457584007913129639935"
      ],
      "transaction": {
        "from": "0x9c760302031d1122b214c5869e526bfd57f04cf1",
        "to": "0xbb9d7298273dfebe2706aafb06d7f1c10e8b356a",
        "gas": "0x965f",
        "value": "0x0",
        "input": "0x095ea7b3000000000000000000000000000000000022d473030f116ddee9f6b43ac78ba3ffffffffffffffffffffffffffffffffffffffffffffffffffffffffffffffff",
        "nonce": "0x53",
        "chainId": "0x2105"
      },
      "additionalContracts": [],
      "isFixedGasLimit": false
    },
    {
      "hash": "0xa95d66a0d77475db806cf91d246d3e0b780a31ac2c0ce180a09bfcb8d7c1f18c",
      "transactionType": "CALL",
      "contractName": null,
      "contractAddress": "0x000000000022d473030f116ddee9f6b43ac78ba3",
      "function": "approve(address,address,uint160,uint48)",
      "arguments": [
        "0x4aA1dF02688241e4c665D4837a7c201CddF9F3CD",
        "0x7C5f5A4bBd8fD63184577525326123B519429bDc",
        "1461501637330902918203684832716283019655932542975",
        "281474976710655"
      ],
      "transaction": {
        "from": "0x9c760302031d1122b214c5869e526bfd57f04cf1",
        "to": "0x000000000022d473030f116ddee9f6b43ac78ba3",
        "gas": "0x96a0",
        "value": "0x0",
        "input": "0x87517c450000000000000000000000004aa1df02688241e4c665d4837a7c201cddf9f3cd0000000000000000000000007c5f5a4bbd8fd63184577525326123b519429bdc000000000000000000000000ffffffffffffffffffffffffffffffffffffffff0000000000000000000000000000000000000000000000000000ffffffffffff",
        "nonce": "0x54",
        "chainId": "0x2105"
      },
      "additionalContracts": [],
      "isFixedGasLimit": false
    },
    {
      "hash": "0x80f8eb6ec423a9eb99fa5d09eeddb348f54a39b6da796dee465b84dbcf34bb5e",
      "transactionType": "CALL",
      "contractName": null,
      "contractAddress": "0x000000000022d473030f116ddee9f6b43ac78ba3",
      "function": "approve(address,address,uint160,uint48)",
      "arguments": [
        "0xbB9d7298273dFEbe2706aafb06d7f1c10E8B356a",
        "0x7C5f5A4bBd8fD63184577525326123B519429bDc",
        "1461501637330902918203684832716283019655932542975",
        "281474976710655"
      ],
      "transaction": {
        "from": "0x9c760302031d1122b214c5869e526bfd57f04cf1",
        "to": "0x000000000022d473030f116ddee9f6b43ac78ba3",
        "gas": "0x96a0",
        "value": "0x0",
        "input": "0x87517c45000000000000000000000000bb9d7298273dfebe2706aafb06d7f1c10e8b356a0000000000000000000000007c5f5a4bbd8fd63184577525326123b519429bdc000000000000000000000000ffffffffffffffffffffffffffffffffffffffff0000000000000000000000000000000000000000000000000000ffffffffffff",
        "nonce": "0x55",
        "chainId": "0x2105"
      },
      "additionalContracts": [],
      "isFixedGasLimit": false
    },
    {
      "hash": "0x60ca140036ecec07cf9468dd35e5098c62627a4854aa32852cc21288f5f7f187",
      "transactionType": "CALL",
      "contractName": null,
      "contractAddress": "0x7c5f5a4bbd8fd63184577525326123b519429bdc",
      "function": "modifyLiquidities(bytes,uint256)",
      "arguments": [
        "0x0000000000000000000000000000000000000000000000000000000000000040000000000000000000000000000000000000000000000000000000000000008000000000000000000000000000000000000000000000000000000000000000030212120000000000000000000000000000000000000000000000000000000000000000000000000000000000000000000000000000000000000000000000000300000000000000000000000000000000000000000000000000000000000000600000000000000000000000000000000000000000000000000000000000000220000000000000000000000000000000000000000000000000000000000000026000000000000000000000000000000000000000000000000000000000000001a00000000000000000000000004aa1df02688241e4c665d4837a7c201cddf9f3cd000000000000000000000000bb9d7298273dfebe2706aafb06d7f1c10e8b356a0000000000000000000000000000000000000000000000000000000000000000000000000000000000000000000000000000000000000000000000000000003c000000000000000000000000c3cee78d0825b24c684355de4e6fbd51f0b940c0ffffffffffffffffffffffffffffffffffffffffffffffffffffffffffffff8800000000000000000000000000000000000000000000000000000000000000780000000000000000000000000000000000000000000000056bc75e2d631000000000000000000000000000000000000000000000000000056bc75e2d63100000000000000000000000000000000000000000000000000000000000e8d4a510000000000000000000000000009c760302031d1122b214c5869e526bfd57f04cf10000000000000000000000000000000000000000000000000000000000000180000000000000000000000000000000000000000000000000000000000000000000000000000000000000000000000000000000000000000000000000000000200000000000000000000000004aa1df02688241e4c665d4837a7c201cddf9f3cd0000000000000000000000000000000000000000000000000000000000000020000000000000000000000000bb9d7298273dfebe2706aafb06d7f1c10e8b356a",
        "1763906365"
      ],
      "transaction": {
        "from": "0x9c760302031d1122b214c5869e526bfd57f04cf1",
        "to": "0x7c5f5a4bbd8fd63184577525326123b519429bdc",
        "gas": "0x4019b",
        "value": "0x0",
        "input": "0xdd46508f0000000000000000000000000000000000000000000000000000000000000040000000000000000000000000000000000000000000000000000000006923133d00000000000000000000000000000000000000000000000000000000000003400000000000000000000000000000000000000000000000000000000000000040000000000000000000000000000000000000000000000000000000000000008000000000000000000000000000000000000000000000000000000000000000030212120000000000000000000000000000000000000000000000000000000000000000000000000000000000000000000000000000000000000000000000000300000000000000000000000000000000000000000000000000000000000000600000000000000000000000000000000000000000000000000000000000000220000000000000000000000000000000000000000000000000000000000000026000000000000000000000000000000000000000000000000000000000000001a00000000000000000000000004aa1df02688241e4c665d4837a7c201cddf9f3cd000000000000000000000000bb9d7298273dfebe2706aafb06d7f1c10e8b356a0000000000000000000000000000000000000000000000000000000000000000000000000000000000000000000000000000000000000000000000000000003c000000000000000000000000c3cee78d0825b24c684355de4e6fbd51f0b940c0ffffffffffffffffffffffffffffffffffffffffffffffffffffffffffffff8800000000000000000000000000000000000000000000000000000000000000780000000000000000000000000000000000000000000000056bc75e2d631000000000000000000000000000000000000000000000000000056bc75e2d63100000000000000000000000000000000000000000000000000000000000e8d4a510000000000000000000000000009c760302031d1122b214c5869e526bfd57f04cf10000000000000000000000000000000000000000000000000000000000000180000000000000000000000000000000000000000000000000000000000000000000000000000000000000000000000000000000000000000000000000000000200000000000000000000000004aa1df02688241e4c665d4837a7c201cddf9f3cd0000000000000000000000000000000000000000000000000000000000000020000000000000000000000000bb9d7298273dfebe2706aafb06d7f1c10e8b356a",
        "nonce": "0x56",
        "chainId": "0x2105"
      },
      "additionalContracts": [],
      "isFixedGasLimit": false
    }
  ],
  "receipts": [
    {
      "status": "0x1",
      "cumulativeGasUsed": "0x29fc673",
      "logs": [
        {
          "address": "0x4aa1df02688241e4c665d4837a7c201cddf9f3cd",
          "topics": [
            "0x8c5be1e5ebec7d5bd14f71427d1e84f3dd0314c0f7b2291e5b200ac8c7c3b925",
            "0x0000000000000000000000009c760302031d1122b214c5869e526bfd57f04cf1",
            "0x000000000000000000000000000000000022d473030f116ddee9f6b43ac78ba3"
          ],
          "data": "0xffffffffffffffffffffffffffffffffffffffffffffffffffffffffffffffff",
          "blockHash": "0x830b7dceef14848ec3a09a0d880535d5826c492a812ff5c98f27fe5123a2b14b",
          "blockNumber": "0x24c5430",
          "blockTimestamp": "0x69230543",
          "transactionHash": "0x2c68e5a4644a5cb2ff09e7c9d5b620441288c3138825abe02eb8ad2c70d2055b",
          "transactionIndex": "0x11b",
          "logIndex": "0x293",
          "removed": false
        }
      ],
      "logsBloom": "0x00000000000000000000000000000000000000000000000000000000000000000000000000000000000000000000000000000000800000000000000000200000000000000000000000004000000000000001000000000800000000000000000000000000000000000000000000000000000000000000000200000000000000000000000000000000000000000000010000000000000000000000000000000000020000000000011000000000000000000000000000000000000000000000000000000000000000000000000000000010000000000000000000000000000000000010000000000000000000000000000000000000000000000000000000000000",
      "type": "0x2",
      "transactionHash": "0x2c68e5a4644a5cb2ff09e7c9d5b620441288c3138825abe02eb8ad2c70d2055b",
      "transactionIndex": "0x11b",
      "blockHash": "0x830b7dceef14848ec3a09a0d880535d5826c492a812ff5c98f27fe5123a2b14b",
      "blockNumber": "0x24c5430",
      "gasUsed": "0x66d3",
      "effectiveGasPrice": "0x119aba",
      "from": "0x9c760302031d1122b214c5869e526bfd57f04cf1",
      "to": "0x4aa1df02688241e4c665d4837a7c201cddf9f3cd",
      "contractAddress": null,
      "l1BaseFeeScalar": "0x8dd",
      "l1BlobBaseFee": "0x1",
      "l1BlobBaseFeeScalar": "0x101c12",
      "l1Fee": "0x10f55893",
      "l1GasPrice": "0x4abd4b4",
      "l1GasUsed": "0x640"
    },
    {
      "status": "0x1",
      "cumulativeGasUsed": "0x2a02d45",
      "logs": [
        {
          "address": "0xbb9d7298273dfebe2706aafb06d7f1c10e8b356a",
          "topics": [
            "0x8c5be1e5ebec7d5bd14f71427d1e84f3dd0314c0f7b2291e5b200ac8c7c3b925",
            "0x0000000000000000000000009c760302031d1122b214c5869e526bfd57f04cf1",
            "0x000000000000000000000000000000000022d473030f116ddee9f6b43ac78ba3"
          ],
          "data": "0xffffffffffffffffffffffffffffffffffffffffffffffffffffffffffffffff",
          "blockHash": "0x830b7dceef14848ec3a09a0d880535d5826c492a812ff5c98f27fe5123a2b14b",
          "blockNumber": "0x24c5430",
          "blockTimestamp": "0x69230543",
          "transactionHash": "0x50e949e0d0f9f643d9d30b84238d0960992dce3c37ebc7a9ec4844ae9b288ed3",
          "transactionIndex": "0x11c",
          "logIndex": "0x294",
          "removed": false
        }
      ],
      "logsBloom": "0x00000000000000000000000000000000000000000000000000000000000000000000000000000000000000000000000000000000800000000000000000200000000000000000000000004000000000000000000000000800000000000000000000000000000000000000000000000000000000000000000000000000000000000000000000000000000000000000010000800000000000000000000000000000020000020000010000000000000000000000000000000000000000000000000000000000000000000000000000000010800000000000000000000000000000000010000000000000000000000000000000000000000000000000000000000000",
      "type": "0x2",
      "transactionHash": "0x50e949e0d0f9f643d9d30b84238d0960992dce3c37ebc7a9ec4844ae9b288ed3",
      "transactionIndex": "0x11c",
      "blockHash": "0x830b7dceef14848ec3a09a0d880535d5826c492a812ff5c98f27fe5123a2b14b",
      "blockNumber": "0x24c5430",
      "gasUsed": "0x66d2",
      "effectiveGasPrice": "0x119aba",
      "from": "0x9c760302031d1122b214c5869e526bfd57f04cf1",
      "to": "0xbb9d7298273dfebe2706aafb06d7f1c10e8b356a",
      "contractAddress": null,
      "l1BaseFeeScalar": "0x8dd",
      "l1BlobBaseFee": "0x1",
      "l1BlobBaseFeeScalar": "0x101c12",
      "l1Fee": "0x10f55893",
      "l1GasPrice": "0x4abd4b4",
      "l1GasUsed": "0x640"
    },
    {
      "status": "0x1",
      "cumulativeGasUsed": "0x2a09a53",
      "logs": [
        {
          "address": "0x000000000022d473030f116ddee9f6b43ac78ba3",
          "topics": [
            "0xda9fa7c1b00402c17d0161b249b1ab8bbec047c5a52207b9c112deffd817036b",
            "0x0000000000000000000000009c760302031d1122b214c5869e526bfd57f04cf1",
            "0x0000000000000000000000004aa1df02688241e4c665d4837a7c201cddf9f3cd",
            "0x0000000000000000000000007c5f5a4bbd8fd63184577525326123b519429bdc"
          ],
          "data": "0x000000000000000000000000ffffffffffffffffffffffffffffffffffffffff0000000000000000000000000000000000000000000000000000ffffffffffff",
          "blockHash": "0x830b7dceef14848ec3a09a0d880535d5826c492a812ff5c98f27fe5123a2b14b",
          "blockNumber": "0x24c5430",
          "blockTimestamp": "0x69230543",
          "transactionHash": "0xa95d66a0d77475db806cf91d246d3e0b780a31ac2c0ce180a09bfcb8d7c1f18c",
          "transactionIndex": "0x11d",
          "logIndex": "0x295",
          "removed": false
        }
      ],
      "logsBloom": "0x00010000000000000000000000000000000000000000000000000000000000000000000000000000000000000000000000000000000000000000000000082000000000000000000000000000000000000000000000000000000000000000000000000000000000000000000000000000000000000000000000000000000000000020000000000010000000000000011000000000000000000000000000000000000000000000010000000000000000000000000000400000000000080000000200000000000000000000000000000010000000000000000040000000000000000000000000000000000000000000000000000000002000000000000000000400",
      "type": "0x2",
      "transactionHash": "0xa95d66a0d77475db806cf91d246d3e0b780a31ac2c0ce180a09bfcb8d7c1f18c",
      "transactionIndex": "0x11d",
      "blockHash": "0x830b7dceef14848ec3a09a0d880535d5826c492a812ff5c98f27fe5123a2b14b",
      "blockNumber": "0x24c5430",
      "gasUsed": "0x6d0e",
      "effectiveGasPrice": "0x119aba",
      "from": "0x9c760302031d1122b214c5869e526bfd57f04cf1",
      "to": "0x000000000022d473030f116ddee9f6b43ac78ba3",
      "contractAddress": null,
      "l1BaseFeeScalar": "0x8dd",
      "l1BlobBaseFee": "0x1",
      "l1BlobBaseFeeScalar": "0x101c12",
      "l1Fee": "0x10f55893",
      "l1GasPrice": "0x4abd4b4",
      "l1GasUsed": "0x6e7"
    },
    {
      "status": "0x1",
      "cumulativeGasUsed": "0x2a10761",
      "logs": [
        {
          "address": "0x000000000022d473030f116ddee9f6b43ac78ba3",
          "topics": [
            "0xda9fa7c1b00402c17d0161b249b1ab8bbec047c5a52207b9c112deffd817036b",
            "0x0000000000000000000000009c760302031d1122b214c5869e526bfd57f04cf1",
            "0x000000000000000000000000bb9d7298273dfebe2706aafb06d7f1c10e8b356a",
            "0x0000000000000000000000007c5f5a4bbd8fd63184577525326123b519429bdc"
          ],
          "data": "0x000000000000000000000000ffffffffffffffffffffffffffffffffffffffff0000000000000000000000000000000000000000000000000000ffffffffffff",
          "blockHash": "0x830b7dceef14848ec3a09a0d880535d5826c492a812ff5c98f27fe5123a2b14b",
          "blockNumber": "0x24c5430",
          "blockTimestamp": "0x69230543",
          "transactionHash": "0x80f8eb6ec423a9eb99fa5d09eeddb348f54a39b6da796dee465b84dbcf34bb5e",
          "transactionIndex": "0x11e",
          "logIndex": "0x296",
          "removed": false
        }
      ],
      "logsBloom": "0x00010000000000000000000000000000000000000000000000000000000000000002000000000000000000000000000000000000000000000000000000082000000000000000000000000000000000004000000000000000000000000000000000000000000000000000000000000000000000000000000000000000000000000020000000000000000000000000010000000000000000000000000000000000000000000000010000000000000000000000000000000000000000080000000200000000000000000000000000000010000000000000000040000000000000000000000000000000000020000000000000000000002000000000000000000400",
      "type": "0x2",
      "transactionHash": "0x80f8eb6ec423a9eb99fa5d09eeddb348f54a39b6da796dee465b84dbcf34bb5e",
      "transactionIndex": "0x11e",
      "blockHash": "0x830b7dceef14848ec3a09a0d880535d5826c492a812ff5c98f27fe5123a2b14b",
      "blockNumber": "0x24c5430",
      "gasUsed": "0x6d0e",
      "effectiveGasPrice": "0x119aba",
      "from": "0x9c760302031d1122b214c5869e526bfd57f04cf1",
      "to": "0x000000000022d473030f116ddee9f6b43ac78ba3",
      "contractAddress": null,
      "l1BaseFeeScalar": "0x8dd",
      "l1BlobBaseFee": "0x1",
      "l1BlobBaseFeeScalar": "0x101c12",
      "l1Fee": "0x10f55893",
      "l1GasPrice": "0x4abd4b4",
      "l1GasUsed": "0x6e7"
    },
    {
      "status": "0x1",
      "cumulativeGasUsed": "0x2a3ede7",
      "logs": [
        {
          "address": "0x7c5f5a4bbd8fd63184577525326123b519429bdc",
          "topics": [
            "0xddf252ad1be2c89b69c2b068fc378daa952ba7f163c4a11628f55a4df523b3ef",
            "0x0000000000000000000000000000000000000000000000000000000000000000",
            "0x0000000000000000000000009c760302031d1122b214c5869e526bfd57f04cf1",
            "0x00000000000000000000000000000000000000000000000000000000000b3920"
          ],
          "data": "0x",
          "blockHash": "0x830b7dceef14848ec3a09a0d880535d5826c492a812ff5c98f27fe5123a2b14b",
          "blockNumber": "0x24c5430",
          "blockTimestamp": "0x69230543",
          "transactionHash": "0x60ca140036ecec07cf9468dd35e5098c62627a4854aa32852cc21288f5f7f187",
          "transactionIndex": "0x11f",
          "logIndex": "0x297",
          "removed": false
        },
        {
          "address": "0x498581ff718922c3f8e6a244956af099b2652b2b",
          "topics": [
            "0xf208f4912782fd25c7f114ca3723a2d5dd6f3bcc3ac8db5af63baa85f711d5ec",
            "0x4e5e918bd31b3ab25ac6b401452b635771c15f30fa6e4cdbb4838cc61ee06805",
            "0x0000000000000000000000007c5f5a4bbd8fd63184577525326123b519429bdc"
          ],
          "data": "0xffffffffffffffffffffffffffffffffffffffffffffffffffffffffffffff8800000000000000000000000000000000000000000000000000000000000000780000000000000000000000000000000000000000000000056bc75e2d6310000000000000000000000000000000000000000000000000000000000000000b3920",
          "blockHash": "0x830b7dceef14848ec3a09a0d880535d5826c492a812ff5c98f27fe5123a2b14b",
          "blockNumber": "0x24c5430",
          "blockTimestamp": "0x69230543",
          "transactionHash": "0x60ca140036ecec07cf9468dd35e5098c62627a4854aa32852cc21288f5f7f187",
          "transactionIndex": "0x11f",
          "logIndex": "0x298",
          "removed": false
        },
        {
          "address": "0x4aa1df02688241e4c665d4837a7c201cddf9f3cd",
          "topics": [
            "0xddf252ad1be2c89b69c2b068fc378daa952ba7f163c4a11628f55a4df523b3ef",
            "0x0000000000000000000000009c760302031d1122b214c5869e526bfd57f04cf1",
            "0x000000000000000000000000498581ff718922c3f8e6a244956af099b2652b2b"
          ],
          "data": "0x00000000000000000000000000000000000000000000000010a7119f9c0836bf",
          "blockHash": "0x830b7dceef14848ec3a09a0d880535d5826c492a812ff5c98f27fe5123a2b14b",
          "blockNumber": "0x24c5430",
          "blockTimestamp": "0x69230543",
          "transactionHash": "0x60ca140036ecec07cf9468dd35e5098c62627a4854aa32852cc21288f5f7f187",
          "transactionIndex": "0x11f",
          "logIndex": "0x299",
          "removed": false
        }
      ],
      "logsBloom": "0x00000000000010000000000000000000000000000000000000000000000000000020000000000000000000000000000000000000000000000000000000002000000000000000000000000008000000000001000000000000000000000000000000000000020000000000000000000800040000000000000200000010000000000000000001004000000000000000010000000000000000000000000400000000004004000000011008000000000000000000000000000000000000000002000200000002000001000000000000000010000800080000000000000000000020000000000000000000008000020000000004000400002002000000000000000000",
      "type": "0x2",
      "transactionHash": "0x60ca140036ecec07cf9468dd35e5098c62627a4854aa32852cc21288f5f7f187",
      "transactionIndex": "0x11f",
      "blockHash": "0x830b7dceef14848ec3a09a0d880535d5826c492a812ff5c98f27fe5123a2b14b",
      "blockNumber": "0x24c5430",
      "gasUsed": "0x2e686",
      "effectiveGasPrice": "0x119aba",
      "from": "0x9c760302031d1122b214c5869e526bfd57f04cf1",
      "to": "0x7c5f5a4bbd8fd63184577525326123b519429bdc",
      "contractAddress": null,
      "l1BaseFeeScalar": "0x8dd",
      "l1BlobBaseFee": "0x1",
      "l1BlobBaseFeeScalar": "0x101c12",
      "l1Fee": "0x10f55893",
      "l1GasPrice": "0x4abd4b4",
      "l1GasUsed": "0x105e"
    }
  ],
  "libraries": [],
  "pending": [],
  "returns": {},
  "timestamp": 1763902786439,
  "chain": 8453,
  "commit": "e3174dc"
}