{
  "transactions": [
    {
      "hash": "0xa6cc1ba8d98982e609368a48bea24c5cca55b053db97408c90f02c4867d915f2",
      "transactionType": "CALL",
      "contractName": null,
      "contractAddress": "0x4aa1df02688241e4c665d4837a7c201cddf9f3cd",
      "function": "approve(address,uint256)",
      "arguments": [
        "0x000000000022D473030F116dDEE9F6B43aC78BA3",
        "115792089237316195423570985008687907853269984665640564039457584007913129639935"
      ],
      "transaction": {
        "from": "0x9c760302031d1122b214c5869e526bfd57f04cf1",
        "to": "0x4aa1df02688241e4c665d4837a7c201cddf9f3cd",
        "gas": "0x9660",
        "value": "0x0",
        "input": "0x095ea7b3000000000000000000000000000000000022d473030f116ddee9f6b43ac78ba3ffffffffffffffffffffffffffffffffffffffffffffffffffffffffffffffff",
        "nonce": "0x58",
        "chainId": "0x2105"
      },
      "additionalContracts": [],
      "isFixedGasLimit": false
    },
    {
      "hash": "0xcb18e0ba88c8e672c9ffe33da92d074e14ad68fa10938832cbd7178c1be10647",
      "transactionType": "CALL",
      "contractName": null,
      "contractAddress": "0xbb9d7298273dfebe2706aafb06d7f1c10e8b356a",
      "function": "approve(address,uint256)",
      "arguments": [
        "0x000000000022D473030F116dDEE9F6B43aC78BA3",
        "115792089237316195423570985008687907853269984665640564039457584007913129639935"
      ],
      "transaction": {
        "from": "0x9c760302031d1122b214c5869e526bfd57f04cf1",
        "to": "0xbb9d7298273dfebe2706aafb06d7f1c10e8b356a",
        "gas": "0x965f",
        "value": "0x0",
        "input": "0x095ea7b3000000000000000000000000000000000022d473030f116ddee9f6b43ac78ba3ffffffffffffffffffffffffffffffffffffffffffffffffffffffffffffffff",
        "nonce": "0x59",
        "chainId": "0x2105"
      },
      "additionalContracts": [],
      "isFixedGasLimit": false
    },
    {
      "hash": "0x754b778cd7b8b339f42bb1c98096e6b61502e66e07e1e7bf60569b6cc6a48387",
      "transactionType": "CALL",
      "contractName": null,
      "contractAddress": "0x000000000022d473030f116ddee9f6b43ac78ba3",
      "function": "approve(address,address,uint160,uint48)",
      "arguments": [
        "0x4aA1dF02688241e4c665D4837a7c201CddF9F3CD",
        "0x7C5f5A4bBd8fD63184577525326123B519429bDc",
        "1461501637330902918203684832716283019655932542975",
        "281474976710655"
      ],
      "transaction": {
        "from": "0x9c760302031d1122b214c5869e526bfd57f04cf1",
        "to": "0x000000000022d473030f116ddee9f6b43ac78ba3",
        "gas": "0x96a0",
        "value": "0x0",
        "input": "0x87517c450000000000000000000000004aa1df02688241e4c665d4837a7c201cddf9f3cd0000000000000000000000007c5f5a4bbd8fd63184577525326123b519429bdc000000000000000000000000ffffffffffffffffffffffffffffffffffffffff0000000000000000000000000000000000000000000000000000ffffffffffff",
        "nonce": "0x5a",
        "chainId": "0x2105"
      },
      "additionalContracts": [],
      "isFixedGasLimit": false
    },
    {
      "hash": "0x9f2221d99f999675be568f1c2cdbe91664d3c72dbc71103e8d7d7cfcb910eb3d",
      "transactionType": "CALL",
      "contractName": null,
      "contractAddress": "0x000000000022d473030f116ddee9f6b43ac78ba3",
      "function": "approve(address,address,uint160,uint48)",
      "arguments": [
        "0xbB9d7298273dFEbe2706aafb06d7f1c10E8B356a",
        "0x7C5f5A4bBd8fD63184577525326123B519429bDc",
        "1461501637330902918203684832716283019655932542975",
        "281474976710655"
      ],
      "transaction": {
        "from": "0x9c760302031d1122b214c5869e526bfd57f04cf1",
        "to": "0x000000000022d473030f116ddee9f6b43ac78ba3",
        "gas": "0x96a0",
        "value": "0x0",
        "input": "0x87517c45000000000000000000000000bb9d7298273dfebe2706aafb06d7f1c10e8b356a0000000000000000000000007c5f5a4bbd8fd63184577525326123b519429bdc000000000000000000000000ffffffffffffffffffffffffffffffffffffffff0000000000000000000000000000000000000000000000000000ffffffffffff",
        "nonce": "0x5b",
        "chainId": "0x2105"
      },
      "additionalContracts": [],
      "isFixedGasLimit": false
    },
    {
      "hash": "0x90c86bd57aa485abbd97765444924dbb06f20c7c13ae8ff3d3491655eaa8e90d",
      "transactionType": "CALL",
      "contractName": null,
      "contractAddress": "0x7c5f5a4bbd8fd63184577525326123b519429bdc",
      "function": "modifyLiquidities(bytes,uint256)",
      "arguments": [
        "0x0000000000000000000000000000000000000000000000000000000000000040000000000000000000000000000000000000000000000000000000000000008000000000000000000000000000000000000000000000000000000000000000030212120000000000000000000000000000000000000000000000000000000000000000000000000000000000000000000000000000000000000000000000000300000000000000000000000000000000000000000000000000000000000000600000000000000000000000000000000000000000000000000000000000000220000000000000000000000000000000000000000000000000000000000000026000000000000000000000000000000000000000000000000000000000000001a00000000000000000000000004aa1df02688241e4c665d4837a7c201cddf9f3cd000000000000000000000000bb9d7298273dfebe2706aafb06d7f1c10e8b356a0000000000000000000000000000000000000000000000000000000000000bb8000000000000000000000000000000000000000000000000000000000000003c000000000000000000000000c3cee78d0825b24c684355de4e6fbd51f0b940c0ffffffffffffffffffffffffffffffffffffffffffffffffffffffffffffff8800000000000000000000000000000000000000000000000000000000000000780000000000000000000000000000000000000000000000056bc75e2d631000000000000000000000000000000000000000000000000000056bc75e2d631000000000000000000000000000000000000000000000000000000000000017d784000000000000000000000000009c760302031d1122b214c5869e526bfd57f04cf10000000000000000000000000000000000000000000000000000000000000180000000000000000000000000000000000000000000000000000000000000000000000000000000000000000000000000000000000000000000000000000000200000000000000000000000004aa1df02688241e4c665d4837a7c201cddf9f3cd0000000000000000000000000000000000000000000000000000000000000020000000000000000000000000bb9d7298273dfebe2706aafb06d7f1c10e8b356a",
        "1763906783"
      ],
      "transaction": {
        "from": "0x9c760302031d1122b214c5869e526bfd57f04cf1",
        "to": "0x7c5f5a4bbd8fd63184577525326123b519429bdc",
        "gas": "0x70c6a",
        "value": "0x0",
        "input": "0xdd46508f000000000000000000000000000000000000000000000000000000000000004000000000000000000000000000000000000000000000000000000000692314df00000000000000000000000000000000000000000000000000000000000003400000000000000000000000000000000000000000000000000000000000000040000000000000000000000000000000000000000000000000000000000000008000000000000000000000000000000000000000000000000000000000000000030212120000000000000000000000000000000000000000000000000000000000000000000000000000000000000000000000000000000000000000000000000300000000000000000000000000000000000000000000000000000000000000600000000000000000000000000000000000000000000000000000000000000220000000000000000000000000000000000000000000000000000000000000026000000000000000000000000000000000000000000000000000000000000001a00000000000000000000000004aa1df02688241e4c665d4837a7c201cddf9f3cd000000000000000000000000bb9d7298273dfebe2706aafb06d7f1c10e8b356a0000000000000000000000000000000000000000000000000000000000000bb8000000000000000000000000000000000000000000000000000000000000003c000000000000000000000000c3cee78d0825b24c684355de4e6fbd51f0b940c0ffffffffffffffffffffffffffffffffffffffffffffffffffffffffffffff8800000000000000000000000000000000000000000000000000000000000000780000000000000000000000000000000000000000000000056bc75e2d631000000000000000000000000000000000000000000000000000056bc75e2d631000000000000000000000000000000000000000000000000000000000000017d784000000000000000000000000009c760302031d1122b214c5869e526bfd57f04cf10000000000000000000000000000000000000000000000000000000000000180000000000000000000000000000000000000000000000000000000000000000000000000000000000000000000000000000000000000000000000000000000200000000000000000000000004aa1df02688241e4c665d4837a7c201cddf9f3cd0000000000000000000000000000000000000000000000000000000000000020000000000000000000000000bb9d7298273dfebe2706aafb06d7f1c10e8b356a",
        "nonce": "0x5c",
        "chainId": "0x2105"
      },
      "additionalContracts": [],
      "isFixedGasLimit": false
    }
  ],
  "receipts": [
    {
      "status": "0x1",
      "cumulativeGasUsed": "0x5473bc5",
      "logs": [
        {
          "address": "0x4aa1df02688241e4c665d4837a7c201cddf9f3cd",
          "topics": [
            "0x8c5be1e5ebec7d5bd14f71427d1e84f3dd0314c0f7b2291e5b200ac8c7c3b925",
            "0x0000000000000000000000009c760302031d1122b214c5869e526bfd57f04cf1",
            "0x000000000000000000000000000000000022d473030f116ddee9f6b43ac78ba3"
          ],
          "data": "0xffffffffffffffffffffffffffffffffffffffffffffffffffffffffffffffff",
          "blockHash": "0xddc0ed6d4ce8a82f46ea16b520453f05350f7a519b5a74c015529692fd846b72",
          "blockNumber": "0x24c5502",
          "blockTimestamp": "0x692306e7",
          "transactionHash": "0xa6cc1ba8d98982e609368a48bea24c5cca55b053db97408c90f02c4867d915f2",
          "transactionIndex": "0x19d",
          "logIndex": "0x4ff",
          "removed": false
        }
      ],
      "logsBloom": "0x00000000000000000000000000000000000000000000000000000000000000000000000000000000000000000000000000000000800000000000000000200000000000000000000000004000000000000001000000000800000000000000000000000000000000000000000000000000000000000000000200000000000000000000000000000000000000000000010000000000000000000000000000000000020000000000011000000000000000000000000000000000000000000000000000000000000000000000000000000010000000000000000000000000000000000010000000000000000000000000000000000000000000000000000000000000",
      "type": "0x2",
      "transactionHash": "0xa6cc1ba8d98982e609368a48bea24c5cca55b053db97408c90f02c4867d915f2",
      "transactionIndex": "0x19d",
      "blockHash": "0xddc0ed6d4ce8a82f46ea16b520453f05350f7a519b5a74c015529692fd846b72",
      "blockNumber": "0x24c5502",
      "gasUsed": "0x66d3",
      "effectiveGasPrice": "0x113677",
      "from": "0x9c760302031d1122b214c5869e526bfd57f04cf1",
      "to": "0x4aa1df02688241e4c665d4837a7c201cddf9f3cd",
      "contractAddress": null,
      "l1BaseFeeScalar": "0x8dd",
      "l1BlobBaseFee": "0x1",
      "l1BlobBaseFeeScalar": "0x101c12",
      "l1Fee": "0x12440dee",
      "l1GasPrice": "0x50806e2",
      "l1GasUsed": "0x640"
    },
    {
      "status": "0x1",
      "cumulativeGasUsed": "0x547a297",
      "logs": [
        {
          "address": "0xbb9d7298273dfebe2706aafb06d7f1c10e8b356a",
          "topics": [
            "0x8c5be1e5ebec7d5bd14f71427d1e84f3dd0314c0f7b2291e5b200ac8c7c3b925",
            "0x0000000000000000000000009c760302031d1122b214c5869e526bfd57f04cf1",
            "0x000000000000000000000000000000000022d473030f116ddee9f6b43ac78ba3"
          ],
          "data": "0xffffffffffffffffffffffffffffffffffffffffffffffffffffffffffffffff",
          "blockHash": "0xddc0ed6d4ce8a82f46ea16b520453f05350f7a519b5a74c015529692fd846b72",
          "blockNumber": "0x24c5502",
          "blockTimestamp": "0x692306e7",
          "transactionHash": "0xcb18e0ba88c8e672c9ffe33da92d074e14ad68fa10938832cbd7178c1be10647",
          "transactionIndex": "0x19e",
          "logIndex": "0x500",
          "removed": false
        }
      ],
      "logsBloom": "0x00000000000000000000000000000000000000000000000000000000000000000000000000000000000000000000000000000000800000000000000000200000000000000000000000004000000000000000000000000800000000000000000000000000000000000000000000000000000000000000000000000000000000000000000000000000000000000000010000800000000000000000000000000000020000020000010000000000000000000000000000000000000000000000000000000000000000000000000000000010800000000000000000000000000000000010000000000000000000000000000000000000000000000000000000000000",
      "type": "0x2",
      "transactionHash": "0xcb18e0ba88c8e672c9ffe33da92d074e14ad68fa10938832cbd7178c1be10647",
      "transactionIndex": "0x19e",
      "blockHash": "0xddc0ed6d4ce8a82f46ea16b520453f05350f7a519b5a74c015529692fd846b72",
      "blockNumber": "0x24c5502",
      "gasUsed": "0x66d2",
      "effectiveGasPrice": "0x113677",
      "from": "0x9c760302031d1122b214c5869e526bfd57f04cf1",
      "to": "0xbb9d7298273dfebe2706aafb06d7f1c10e8b356a",
      "contractAddress": null,
      "l1BaseFeeScalar": "0x8dd",
      "l1BlobBaseFee": "0x1",
      "l1BlobBaseFeeScalar": "0x101c12",
      "l1Fee": "0x12440dee",
      "l1GasPrice": "0x50806e2",
      "l1GasUsed": "0x640"
    },
    {
      "status": "0x1",
      "cumulativeGasUsed": "0x5480fa5",
      "logs": [
        {
          "address": "0x000000000022d473030f116ddee9f6b43ac78ba3",
          "topics": [
            "0xda9fa7c1b00402c17d0161b249b1ab8bbec047c5a52207b9c112deffd817036b",
            "0x0000000000000000000000009c760302031d1122b214c5869e526bfd57f04cf1",
            "0x0000000000000000000000004aa1df02688241e4c665d4837a7c201cddf9f3cd",
            "0x0000000000000000000000007c5f5a4bbd8fd63184577525326123b519429bdc"
          ],
          "data": "0x000000000000000000000000ffffffffffffffffffffffffffffffffffffffff0000000000000000000000000000000000000000000000000000ffffffffffff",
          "blockHash": "0xddc0ed6d4ce8a82f46ea16b520453f05350f7a519b5a74c015529692fd846b72",
          "blockNumber": "0x24c5502",
          "blockTimestamp": "0x692306e7",
          "transactionHash": "0x754b778cd7b8b339f42bb1c98096e6b61502e66e07e1e7bf60569b6cc6a48387",
          "transactionIndex": "0x19f",
          "logIndex": "0x501",
          "removed": false
        }
      ],
      "logsBloom": "0x00010000000000000000000000000000000000000000000000000000000000000000000000000000000000000000000000000000000000000000000000082000000000000000000000000000000000000000000000000000000000000000000000000000000000000000000000000000000000000000000000000000000000000020000000000010000000000000011000000000000000000000000000000000000000000000010000000000000000000000000000400000000000080000000200000000000000000000000000000010000000000000000040000000000000000000000000000000000000000000000000000000002000000000000000000400",
      "type": "0x2",
      "transactionHash": "0x754b778cd7b8b339f42bb1c98096e6b61502e66e07e1e7bf60569b6cc6a48387",
      "transactionIndex": "0x19f",
      "blockHash": "0xddc0ed6d4ce8a82f46ea16b520453f05350f7a519b5a74c015529692fd846b72",
      "blockNumber": "0x24c5502",
      "gasUsed": "0x6d0e",
      "effectiveGasPrice": "0x113677",
      "from": "0x9c760302031d1122b214c5869e526bfd57f04cf1",
      "to": "0x000000000022d473030f116ddee9f6b43ac78ba3",
      "contractAddress": null,
      "l1BaseFeeScalar": "0x8dd",
      "l1BlobBaseFee": "0x1",
      "l1BlobBaseFeeScalar": "0x101c12",
      "l1Fee": "0x12440dee",
      "l1GasPrice": "0x50806e2",
      "l1GasUsed": "0x6e7"
    },
    {
      "status": "0x1",
      "cumulativeGasUsed": "0x5487cb3",
      "logs": [
        {
          "address": "0x000000000022d473030f116ddee9f6b43ac78ba3",
          "topics": [
            "0xda9fa7c1b00402c17d0161b249b1ab8bbec047c5a52207b9c112deffd817036b",
            "0x0000000000000000000000009c760302031d1122b214c5869e526bfd57f04cf1",
            "0x000000000000000000000000bb9d7298273dfebe2706aafb06d7f1c10e8b356a",
            "0x0000000000000000000000007c5f5a4bbd8fd63184577525326123b519429bdc"
          ],
          "data": "0x000000000000000000000000ffffffffffffffffffffffffffffffffffffffff0000000000000000000000000000000000000000000000000000ffffffffffff",
          "blockHash": "0xddc0ed6d4ce8a82f46ea16b520453f05350f7a519b5a74c015529692fd846b72",
          "blockNumber": "0x24c5502",
          "blockTimestamp": "0x692306e7",
          "transactionHash": "0x9f2221d99f999675be568f1c2cdbe91664d3c72dbc71103e8d7d7cfcb910eb3d",
          "transactionIndex": "0x1a0",
          "logIndex": "0x502",
          "removed": false
        }
      ],
      "logsBloom": "0x00010000000000000000000000000000000000000000000000000000000000000002000000000000000000000000000000000000000000000000000000082000000000000000000000000000000000004000000000000000000000000000000000000000000000000000000000000000000000000000000000000000000000000020000000000000000000000000010000000000000000000000000000000000000000000000010000000000000000000000000000000000000000080000000200000000000000000000000000000010000000000000000040000000000000000000000000000000000020000000000000000000002000000000000000000400",
      "type": "0x2",
      "transactionHash": "0x9f2221d99f999675be568f1c2cdbe91664d3c72dbc71103e8d7d7cfcb910eb3d",
      "transactionIndex": "0x1a0",
      "blockHash": "0xddc0ed6d4ce8a82f46ea16b520453f05350f7a519b5a74c015529692fd846b72",
      "blockNumber": "0x24c5502",
      "gasUsed": "0x6d0e",
      "effectiveGasPrice": "0x113677",
      "from": "0x9c760302031d1122b214c5869e526bfd57f04cf1",
      "to": "0x000000000022d473030f116ddee9f6b43ac78ba3",
      "contractAddress": null,
      "l1BaseFeeScalar": "0x8dd",
      "l1BlobBaseFee": "0x1",
      "l1BlobBaseFeeScalar": "0x101c12",
      "l1Fee": "0x12440dee",
      "l1GasPrice": "0x50806e2",
      "l1GasUsed": "0x6e7"
    },
    {
      "status": "0x1",
      "cumulativeGasUsed": "0x54d9711",
      "logs": [
        {
          "address": "0x7c5f5a4bbd8fd63184577525326123b519429bdc",
          "topics": [
            "0xddf252ad1be2c89b69c2b068fc378daa952ba7f163c4a11628f55a4df523b3ef",
            "0x0000000000000000000000000000000000000000000000000000000000000000",
            "0x0000000000000000000000009c760302031d1122b214c5869e526bfd57f04cf1",
            "0x00000000000000000000000000000000000000000000000000000000000b3947"
          ],
          "data": "0x",
          "blockHash": "0xddc0ed6d4ce8a82f46ea16b520453f05350f7a519b5a74c015529692fd846b72",
          "blockNumber": "0x24c5502",
          "blockTimestamp": "0x692306e7",
          "transactionHash": "0x90c86bd57aa485abbd97765444924dbb06f20c7c13ae8ff3d3491655eaa8e90d",
          "transactionIndex": "0x1a1",
          "logIndex": "0x503",
          "removed": false
        },
        {
          "address": "0x498581ff718922c3f8e6a244956af099b2652b2b",
          "topics": [
            "0xf208f4912782fd25c7f114ca3723a2d5dd6f3bcc3ac8db5af63baa85f711d5ec",
            "0xee3563ab546dddd4c9b8c4db4721077d62d363bfeabf0a98b5ed786e0ff2a7be",
            "0x0000000000000000000000007c5f5a4bbd8fd63184577525326123b519429bdc"
          ],
          "data": "0xffffffffffffffffffffffffffffffffffffffffffffffffffffffffffffff8800000000000000000000000000000000000000000000000000000000000000780000000000000000000000000000000000000000000000056bc75e2d6310000000000000000000000000000000000000000000000000000000000000000b3947",
          "blockHash": "0xddc0ed6d4ce8a82f46ea16b520453f05350f7a519b5a74c015529692fd846b72",
          "blockNumber": "0x24c5502",
          "blockTimestamp": "0x692306e7",
          "transactionHash": "0x90c86bd57aa485abbd97765444924dbb06f20c7c13ae8ff3d3491655eaa8e90d",
          "transactionIndex": "0x1a1",
          "logIndex": "0x504",
          "removed": false
        },
        {
          "address": "0x4aa1df02688241e4c665d4837a7c201cddf9f3cd",
          "topics": [
            "0xddf252ad1be2c89b69c2b068fc378daa952ba7f163c4a11628f55a4df523b3ef",
            "0x0000000000000000000000009c760302031d1122b214c5869e526bfd57f04cf1",
            "0x000000000000000000000000498581ff718922c3f8e6a244956af099b2652b2b"
          ],
          "data": "0x00000000000000000000000000000000000000000000000010a7119f9c0836bf",
          "blockHash": "0xddc0ed6d4ce8a82f46ea16b520453f05350f7a519b5a74c015529692fd846b72",
          "blockNumber": "0x24c5502",
          "blockTimestamp": "0x692306e7",
          "transactionHash": "0x90c86bd57aa485abbd97765444924dbb06f20c7c13ae8ff3d3491655eaa8e90d",
          "transactionIndex": "0x1a1",
          "logIndex": "0x505",
          "removed": false
        }
      ],
      "logsBloom": "0x00000000000000000000000000000000000000000000000000000000080000000020000000000000000000000000000000000000000000000000000000002000000000000000000000000008000000000001000200004000000000000000000000000000020000000000000000000800040000000000000200000010000020000000000001004000000000000000010000000000000000000000000400000000004004000000011008000000000000000000000000000000000000000000000200000002000001800000000000000010000800000000000000000000000020000000000000000000000000000000000004200400002000000000000000000000",
      "type": "0x2",
      "transactionHash": "0x90c86bd57aa485abbd97765444924dbb06f20c7c13ae8ff3d3491655eaa8e90d",
      "transactionIndex": "0x1a1",
      "blockHash": "0xddc0ed6d4ce8a82f46ea16b520453f05350f7a519b5a74c015529692fd846b72",
      "blockNumber": "0x24c5502",
      "gasUsed": "0x51a5e",
      "effectiveGasPrice": "0x113677",
      "from": "0x9c760302031d1122b214c5869e526bfd57f04cf1",
      "to": "0x7c5f5a4bbd8fd63184577525326123b519429bdc",
      "contractAddress": null,
      "l1BaseFeeScalar": "0x8dd",
      "l1BlobBaseFee": "0x1",
      "l1BlobBaseFeeScalar": "0x101c12",
      "l1Fee": "0x12440dee",
      "l1GasPrice": "0x50806e2",
      "l1GasUsed": "0x10e4"
    }
  ],
  "libraries": [],
  "pending": [],
  "returns": {},
  "timestamp": 1763903207166,
  "chain": 8453,
  "commit": "e3174dc"
}